:100000000C946E010C94470F0C94510F0C945B0FE1
:100010000C94650F0C946F0F0C94790F0C9454187A
:100020000C94830F0C948D010C948D010C94571A31
:100030000C94F81B0C94110F0C94270F0C94CE0EFB
:100040000C949E100C94251E0C94C90C0C948D01DC
:100050000C94450D0C942C100C948D010C948D0176
:100060000C941C0F0C949B0E0C947A0E0C94850E21
:100070000C94900E0C94AE0E0C945D0E0C948D01AD
:100080000C946F0E0C948D010C948D018C38643996
:10009000E13AE43AEC3A153B7C385B3B693B763B12
:1000A0008B3BC03BC33BC63BC93BCC3BD33B0B3C30
:1000B000B93CDD3CF23C423D7B3DC43DC73DD73DB4
:1000C0003A3E653E6D3E703E733E763E793E8538E3
:1000D0009D3EAB3EAE3E0000211042206330844086
:1000E000A550C660E770088129914AA16BB18CC107
:1000F000ADD1CEE1EFF13112100273325222B5527E
:100100009442F772D662399318837BB35AA3BDD356
:100110009CC3FFF3DEE36224433420040114E6644D
:10012000C774A44485546AA54BB528850995EEE5A6
:10013000CFF5ACC58DD55336722611163006D7765D
:10014000F6669556B4465BB77AA719973887DFF7F6
:10015000FEE79DD7BCC7C448E5588668A778400825
:10016000611802282338CCC9EDD98EE9AFF9488946
:1001700069990AA92BB9F55AD44AB77A966A711ABD
:10018000500A333A122AFDDBDCCBBFFB9EEB799B96
:10019000588B3BBB1AABA66C877CE44CC55C222C0D
:1001A000033C600C411CAEED8FFDECCDCDDD2AADE6
:1001B0000BBD688D499D977EB66ED55EF44E133E9D
:1001C000322E511E700E9FFFBEEFDDDFFCCF1BBF36
:1001D0003AAF599F788F8891A981CAB1EBA10CD110
:1001E0002DC14EF16FE18010A100C230E320045018
:1001F000254046706760B9839893FBA3DAB33DC38B
:100200001CD37FE35EF3B1029012F322D232354267
:10021000145277625672EAB5CBA5A89589856EF51A
:100220004FE52CD50DC5E234C324A01481046674B7
:10023000476424540544DBA7FAB79987B8975FE76A
:100240007EF71DC73CD7D326F2369106B016576607
:100250007676154634564CD96DC90EF92FE9C899F2
:10026000E9898AB9ABA94458654806782768C01857
:10027000E1088238A3287DCB5CDB3FEB1EFBF98BCA
:10028000D89BBBAB9ABB754A545A376A167AF10AA7
:10029000D01AB32A923A2EFD0FED6CDD4DCDAABDDA
:1002A0008BADE89DC98D267C076C645C454CA23CF7
:1002B000832CE01CC10C1FEF3EFF5DCF7CDF9BAFAA
:1002C000BABFD98FF89F176E367E554E745E932E47
:1002D000B23ED10EF01E00081C18141011241FBECF
:1002E000CFEFD0E1DEBFCDBF13E0A0E0B1E0ECE0A6
:1002F000F2E900E00BBF02C007900D92A638B107EB
:10030000D9F710E1A6E8B3E001C01D92AD33B10703
:10031000E1F70E9436400C9405490C9400008FB719
:10032000F894992708958FBF08958FB7F894992767
:100330002091AC033091AD03409137048FBF8FB74C
:10034000F894E42FFF27EE0FFF1FE95BFC4F31838A
:10035000208320919F03442311F02B7F01C02D7F28
:1003600020939F031092AA0399278FBF0895AC0191
:10037000E3E7F7E080E090E09C01858180FF05C025
:10038000808191818417950741F0C90101963B96C0
:100390008A30910589F72FEF30E0C90108950E9456
:1003A000B7018F3F91F099272BE030E0829FF00159
:1003B000839FF00D929FF00D1124ED58F84F858129
:1003C00081FF03C08781908508958FEF9FEF089587
:1003D0000F931F93CF93DF93EC01892BF9F02091BA
:1003E000D40D3091D50D8FEF2F3F3807B9F08091A4
:1003F000EA03813029F48AE090E0998388830BC076
:100400000091D60D1091D70DC9010E94CF01080FA0
:10041000191F1983088380E090E002C081E090E01A
:10042000DF91CF911F910F910895282F9FB7F894D6
:10043000E82FFF27E45CFB4F80818F3F81F4E09140
:100440004D0FE21771F40BC02093B60E04C0FF27C6
:10045000E45CFB4F208320934D0F20E007C025E094
:1004600005C08091B60E8F3F91F7EECF892F992767
:100470008FBF822F9927089583E00E941502992744
:10048000089588E00E9415029927089584E10E944A
:100490001502992708958FE00E9415029927089563
:1004A00080E10E941502992708958FB7F894992743
:1004B0006093BF038FBF86E10E941502089581E11A
:1004C0000E941502992708958FE10E94150299272D
:1004D000089589E10E941502992708958AE10E94F2
:1004E0001502992708958EE10E9415029927089513
:1004F0008DE10E941502992708958BE10E94150253
:10050000992708951F931FB7F8948091390F882376
:1005100039F40E941502882319F481E08093390F81
:10052000812F99278FBF1F910895382FFA01422FED
:100530002D3118F082E090E008956683872F992787
:100540008583338741878091A3039091A403892BEE
:1005500019F085E090E008952FB7F894332785E0EF
:100560008093A6031092A703F093A203E093A10344
:1005700082E090E09093A4038093A3031092A903D8
:100580001092A803445F4093A5032FBF9FB7F89430
:100590008091EA06882311F020E006C081E0809374
:1005A000EA061092EB0621E0892F99278FBF2223BC
:1005B00029F00E94820280E090E008951092A40346
:1005C0001092A30381E090E00895CF93DF93582F1A
:1005D000DB01823018F081E090E038C0C82FDD27C1
:1005E000CC0FDD1FC959D84F88819981892B19F00B
:1005F00085E090E02BC0798368839B012B5F3F4FA0
:10060000F901448380914D03823018F480E090E03A
:100610001DC0F9018681FB0165817727762F66274A
:10062000F90121813327622B732B50934D03242F23
:10063000AD010E9495029927282F882329F082E096
:1006400080934D0319821882822F9927DF91CF91D1
:100650000895CF93DF93FB01DB011596ED018983AC
:10066000892F9927858384E68E8380E00E94E502A6
:100670009927DF91CF9108952F923F924F925F92E9
:100680006F927F928F929F92AF92BF92CF92DF92A2
:10069000EF92FF920F931F93CF93DF93CDB7DEB707
:1006A00029970FB6F894DEBF0FBECDBF6FB7698331
:1006B000F8942090820630908306409084065090F3
:1006C00085066624772488240EE4A02E13E8B12E34
:1006D000CC24DD24EE24FF2400E010E0222D332D75
:1006E000442D552D662D772D882D90E00E94634274
:1006F0002A833B834C835D836E837F8388879987BE
:10070000822E932EA42EB52E2401350100E20E94E4
:100710006143A22EB32EC42ED52EA301920156956D
:100720004795379527952A0D3B1D4C1D5D1D57FF9D
:1007300005C05F772F5F3F4F4F4F5F4F209382067B
:10074000309383064093840650938506E9818E2F6B
:1007500099278FBFCA01B90129960FB6F894DEBF59
:100760000FBECDBFDF91CF911F910F91FF90EF9002
:10077000DF90CF90BF90AF909F908F907F906F90C1
:100780005F904F903F902F9008950E94B7018F3F48
:1007900019F481E090E00895282F33278BE090E052
:1007A000289FF001299FF00D389FF00D1124ED587E
:1007B000F84F85818860858380E090E00895EF920E
:1007C0000F931F93AE2D99E0899FF0011124ED51F5
:1007D000F84F408351836283738304831583268398
:1007E0003783A17080858E7F8A2B826080878BE023
:1007F0000E9415021F910F91EF9008957FB7F89412
:1008000062B72091E5033091E6034091E7035091F0
:10081000E80306B601FE0FC081B792B7280F311D5D
:10082000411D511D2F5F3F4F4F4F5F4F290F311D0E
:10083000411D511D04C0260F311D411D511D872F23
:1008400099278FBFCA01B9010895AF92BF92CF9285
:10085000DF92EF92FF920F931F93F82E5A016B01D4
:100860000E94FE03AB01BC0181E0E82E96018501E8
:100870008F2D0E94DF031F910F91FF90EF90DF906B
:10088000CF90BF90AF900895282F9FB7F89466231C
:1008900049F0E82FFF27EA52F64F8081882311F0B4
:1008A00021E006C0E22FFF27EA52F64F608320E0E6
:1008B000892F99278FBF822F99270895882311F0B8
:1008C0006E9A08956E980895882311F06F9A08958E
:1008D0006F98089580E00E945E04BA9ABB98B99A16
:1008E0006C9A80E00E946404709A6B986A98689889
:1008F00081E00E945E0408959C016E5F6D3118F0E6
:1009000080E090E008950C9611F0C9010E960895CC
:10091000CF93DF93FC01DC011196ED012981332790
:10092000322F2227818199278062282B392B21831E
:10093000232F3327298380E090E0DF91CF91089522
:10094000FC0184899927982F882725893327822BB2
:10095000932B0895FC0127813085C901A3E0880FFE
:10096000991FAA95E1F7820F931F860F971F6AE0E0
:1009700070E00E948548708767830895FC01618557
:100980009285662329F48AE0989FB001112409C05A
:1009900077278AE0989FC00111240E949948118608
:1009A0001286CF010E94AA0408958091C703E82F00
:1009B000FF27EE0FFF1FE05FF54F0190F081E02D64
:1009C0002091C903222351F08F5F8093C7038D309C
:1009D00011F41092C70321502093C903CF01089549
:1009E000FC0184899927982F882725893327822B12
:1009F000932B0895AF92BF92DF92EF92FF920F93E5
:100A00001F93CF93DF935C01D090E903F090270709
:100A1000EE2425C00F2D03701127C5010E94F0049C
:100A2000F801EE0FFF1FEE0FFF1FE00FF11FE4595B
:100A3000FB4F208131818217930779F4D5011C96F1
:100A4000ED019A858281891741F49A818481891701
:100A500021F49B858381891721F0E394F394ED14AD
:100A6000C9F68E2D9927DF91CF911F910F91FF909D
:100A7000EF90DF90BF90AF900895AC0120912407D4
:100A80002C3018F081E090E0089580918906682F5D
:100A9000620F712D711DFB016C30710508F03C97E0
:100AA000EE0FFF1FEB54F64F518340832F5F2093CF
:100AB000240780E090E00895AC01209123072C30BA
:100AC00018F081E090E008958091C30E682F620FC6
:100AD000712D711DFB016C30710508F03C97EE0F14
:100AE000FF1FED5AF04F518340832F5F2093230760
:100AF00080E090E008959C01645F6D3118F080E023
:100B000090E008950C9611F0C90148960895E82FD9
:100B10008FB7F894282F332790E0FF27EA52F64F3B
:100B20008081861709F491E02FBF892F99270895B6
:100B3000682F81E00E94870599270895682F84E037
:100B40000E948705992708958FB7F8946091BC0695
:100B50007091BD062CB53DB506B602FE04C06F5FB0
:100B60007F4F2CB53DB599278FBF88279927CB019B
:100B70007727662744275527622B732B842B952BC9
:100B80000895EF92FF920F931F930E94A4057B019B
:100B90008C012091D8063091D9064091DA06509107
:100BA000DB068091C0069091C106A091C206B0916B
:100BB000C306820F931FA41FB51FE216F306040796
:100BC000150730F082179307A407B50758F005C042
:100BD00082179307A407B507E0F5E816F9060A0798
:100BE0001B07B8F59C01AD012E193F09400B510BB5
:100BF000213060E8360760E0460760E0560768F19C
:100C000080E090E8A0E0B0E0E80EF91E0A1F1B1F8C
:100C1000E092D806F092D9060093DA061093DB062C
:100C200080E090E8AFEFBFEFE80EF91E0A1F1B1F30
:100C300020503048404050402093C0063093C106B9
:100C40004093C2065093C30620E030E840E050E0F5
:100C500014C020E030E040E050E08093D80690934C
:100C6000D906A093DA06B093DB061092C006109264
:100C7000C1061092C2061092C306A901B7012CB595
:100C80003DB5C9018E199F0903968417950720F079
:100C9000B9016D5F7F4F02C0640F751F611571054B
:100CA00011F461E070E0615070407BBD6ABD80E18D
:100CB00086BF87B7806187BF1F910F91FF90EF902C
:100CC00008950F931F930FB7F89411276093D806D8
:100CD0007093D9068093DA069093DB062093C006C2
:100CE0003093C1064093C2065093C3060E94C105CB
:100CF0000FBF1F910F910895EF92FF920F931F93D3
:100D00007B018C010E94A405A80197010E94610645
:100D10001F910F91FF90EF9008958FB7F894992746
:100D20001092D6098FBF089580E880933504109201
:100D3000D9051092C10E1092B50E1092B804089504
:100D40000F931F930FB7F89411270E94940681E028
:100D500090E090936404809363041092D90589B75E
:100D60008F7B89BF80E488BF8AB780628ABF8AB7D9
:100D70008F7E8ABF89B7806489BF0FBF80E090E013
:100D80001F910F9108951092BB031092BA03DE9841
:100D9000DD98DE9A80E090E008951F93182F81E09F
:100DA0000E945E041FB9779BFECF8FB199271F91D8
:100DB00008958F929F92AF92BF92CF92DF92EF925F
:100DC000FF920F931F93CF93DF938FB7F8949927D8
:100DD000C090CB0ED090CC0E8090D2089090D308CB
:100DE000C0916507D09166072091E0033091E1033F
:100DF000FAE0AF2EB12CAC0EBD1E2A153B0508F44F
:100E000059018FBF7401EC0EFD1E86010C0F1D1FD2
:100E100014C0C114D10419F0F801808101C080E030
:100E20000E94CD068114910411F0F7018083219670
:100E30000894E11CF11C0F5F1F4FC5010197C817F3
:100E4000D90738F381E00E9464049FB7F894C11475
:100E5000D10431F0CC0EDD1EF60180818FB901C0C6
:100E60001FB8D0936607C0936507892F99278FBF56
:100E700080E090E0DF91CF911F910F91FF90EF9074
:100E8000DF90CF90BF90AF909F908F9008952FB735
:100E9000F89433275093E1034093E0039093CC0EF2
:100EA0008093CB0E7093D3086093D208109266079C
:100EB000109265072FBF452B29F08FB10E94D906EC
:100EC0009927089582E10E94150280E090E008953C
:100ED0009BE0899FF0011124ED58F84F71836083E6
:100EE00012821382148285E085831682108617820F
:100EF00008954F925F927F928F929F92AF92BF928E
:100F0000CF92DF92EF92FF920F931F93CF93DF93D5
:100F1000CDB7DEB722970FB6F894DEBF0FBECDBFB8
:100F2000782EC62E882E99248BE090E0889EF001C2
:100F3000899EF00D989EF00D1124ED58F84F858193
:100F400082FF03C062838B7F85838281DC2CD81A69
:100F5000C28283818F5F8383DD2021F084818D0DA8
:100F60008150848383812481820F912D911D039769
:100F700024F422E02D1508F050C0A080B180A3E732
:100F80004A2EA7E05A2EF201808191818A159B0595
:100F9000D1F5858180FF37C08260858363811481AC
:100FA000160F133008F413E0F201068189E0089F60
:100FB000700111247727882799272AEF30E040E035
:100FC00050E00E945A48212F3327442755270E947A
:100FD000AC48C701820F911D6AE070E00E949948F9
:100FE000F201668313821482662341F0772784EC32
:100FF00099E00E9499486B3F710510F06FEF7FEF09
:10100000C2010E94AA042BE030E0420E531E31EED2
:10101000431637E0530609F0B6CF8AE08D15B8F4D1
:101020008BE090E0889EF001899EF00D989EF00D77
:101030001124ED58F84FFA83E98360817181872D7F
:101040000E946807E981FA81C28281E08383229647
:101050000FB6F894DEBF0FBECDBFDF91CF911F91C9
:101060000F91FF90EF90DF90CF90BF90AF909F9047
:101070008F907F905F904F90089580E090E0E8E738
:10108000F7E09C01808180FF08C0C90101963B9672
:101090008A309105B1F72FEF30E0C9010895982FFC
:1010A000AFEF60E070E040E050E0E8E7F7E080811B
:1010B000282F332720FF0BC021FF09C023FD07C0C5
:1010C000228133812617370710F0A42FB9014F5F13
:1010D0005F4F3B964A30510551F7892F9927681782
:1010E000790718F48FEF90E008958A2F99270895D3
:1010F000AC0130913A048FEF4F3F580711F020E0D8
:1011000012C0832F99270895E22FFF27B3E0EE0F37
:10111000FF1FBA95E1F7E353FB4F8081918184175C
:10112000950719F02F5F231779F7822F99270895D4
:10113000FC018081448555274F7050709A01220F21
:10114000331F240F351F821B8F50992708959FB797
:10115000F894282F332720FF02C0DA9801C0DA9ACA
:1011600021FF02C0D99801C0D99A22FF02C0D898A5
:1011700001C0D89A892F99278FBF0895AC0120917B
:10118000C9032D3018F081E090E008958091C803E4
:10119000E82FFF27EE0FFF1FE05FF54F51834083DD
:1011A0008F5F8093C8038D3011F41092C8032F5FB6
:1011B0002093C90380E090E00895AF92BF92CF9250
:1011C000DF92EF92FF920F931F93F82E5A016B015B
:1011D0000E94FE03AB01BC01EE24960185018F2D18
:1011E0000E94DF031F910F91FF90EF90DF90CF904F
:1011F000BF90AF9008954091DE0D5527542F44279E
:101200008091DF0D9927482B592B6627772780E09F
:101210000E94DD0810923404089597B79F7D97BF10
:1012200090E296BF882319F08EB5806402C08EB517
:101230008F7B8EBD87B7806287BF80E090E0089586
:1012400081E00E940D0999270895CF93DF93FC0157
:1012500015A6DC019E96ED011B821A82198280E898
:1012600086A7DF91CF910895982F9695969596959C
:10127000E2EEF7E0E90FF11D877021E030E002C0F7
:10128000220F331F8A95E2F78081822399270895E0
:101290000F931F93CF93DF93182F8FB7F894282FB6
:1012A0003327022F8091B903882359F581E0809379
:1012B000B90310932A0A2FBF8FB7F8949927379A4A
:1012C0008FBF8FB7F894C82FDD279C2F80915003D4
:1012D0008230A9F48091B903813021F48CE00E941E
:1012E000150209C0823059F480912A0A8093500374
:1012F00083E08093B903CFBF80E090E01FC09FBF21
:10130000FBCF812F0E943409882319F085E090E0FB
:1013100014C0E12FE695E695E695FF27EE51F84FCC
:10132000177081E090E002C0880F991F1A95E2F7CC
:101330002081282B208380E090E00FBFDF91CF91A8
:101340001F910F9108958091BE0E882311F0813076
:1013500011F478E008C0882329F0813019F02FE1DA
:1013600070E002C070E02EE1622FEFB7F894809138
:1013700082048E7F8093820487B1982F9F7182951B
:1013800086958695837019F080E090E012C0822FD8
:101390008850863118F081E090E00BC040E050E0CA
:1013A0003327892F99272817390711F441E050E096
:1013B000CA01982F9170990F809182048178262F0D
:1013C0002F71422F440F440F892B842B809382046A
:1013D000332727B9783059F58091B70E9091B80E20
:1013E00021E08638920718F087E090E01FC0833C28
:1013F000910518F086E090E019C08136910518F04B
:1014000085E090E013C08033910518F084E090E00F
:101410000DC08831910518F083E090E007C00C976B
:1014200018F082E090E002C080E090E0782F7770C2
:10143000887D872B886D992786B98E2F99278FBF36
:101440000895DF92EF92FF920F931F938FB7F89456
:10145000282F3327D22E91B782B746B7981711F0AD
:1014600041FF02C02FBF6AC080915A078823E1F173
:101470000E94FE03E090D209F090D3090091D409B4
:101480001091D50920912E0430912F044091300401
:10149000509131046E197F09800B910B621773070D
:1014A0008407950720F010925A0771E01EC02E0D98
:1014B0003F1D401F511F8091E5039091E603A091CD
:1014C000E703B091E803281B390B4A0B5B0B273E5F
:1014D00031054105510540F4822F223010F070E0B3
:1014E00005C070E082E002C070E086EE682F6150B7
:1014F00000B601FCFDCF82B7681709F46F5F209139
:10150000E5033091E6034091E7035091E803DA01E7
:10151000C9010196A11DB11D860F911DA11DB11D0F
:1015200082179307A407B50710F4622F609561BF77
:10153000DFBE772319F08AE00E9415021F910F91F8
:10154000FF90EF90DF900895AFB7F894BB27E1E0EC
:10155000E0935A076093D2097093D3098093D4091A
:101560009093D50920932E0430932F044093300498
:1015700050933104AFBF0E94210A08959FB7F89499
:10158000809171098A3011F020E006C020E080913E
:10159000DA05843009F421E0892F99278FBF2223AF
:1015A00049F082E00E9415028FB7F89499271092B3
:1015B0009E0306C08FB7F894992721E020939E03DD
:1015C0008FBF08952FB7F89433278CB95E9A2FBF39
:1015D0000895FC016115710519F481E090E008950A
:1015E0008091E2069091E306892B19F085E090E066
:1015F00008957093ED0D6093EC0DF093E306E09386
:10160000E2061092100610920F0681E080931106F8
:101610005E9A569A808121E030E030931006209344
:101620000F060E94E20A80E090E008958091AF03E7
:101630008E7F8093AF038EE780936B0461E070E050
:101640008BE694E00E94E90A99270895E6EDF0E020
:101650006927660FF11DE60FF11DC895982F802DA3
:101660003196C89590250895982F8091AA038823D4
:1016700089F5992379F531E03093AA0380914603E7
:101680008093AB0320919F03822F81708093370456
:1016900080914B0390914C039093AD038093AC03E6
:1016A0008091A0038093AE0332273170267EE32F12
:1016B000FF27EE0FFF1FE95BFC4F80819181909324
:1016C0004C0380934B03232B20939F0385E00E94C0
:1016D0001502089580919F0380FF02C08B7F01C097
:1016E0008D7F80939F0308950F931F93082F162FCC
:1016F0008091DA058130D9F0813038F0823009F4F8
:101700004AC0833009F00EC159C0002309F43EC11C
:1017100010929A0D1092990D1092B4091092540ED5
:101720001092120610926E0710926D071FC10023CF
:1017300009F02CC180916D0790916E070E94260BD5
:1017400090936E0780936D0782E08093DA05109383
:10175000540E143409F0E6C00BC18695869503C07B
:1017600080919F038695817009F0DCC080919F0372
:10177000992311F0846001C0826080939F0380915F
:101780009F03877E886080939F031092A0038FEF52
:1017900080934603FBC0002309F0C4C06093120687
:1017A00080916D0790916E070E94260B90936E07B3
:1017B00080936D0783E08093DA05E8C08091B409D7
:1017C0008F3F09F4AFC0002309F447C0823008F40A
:1017D000A9C0E091990DEE2309F4D1C04E2F4150DC
:1017E000E42FFF27E756F24F82819927382F2227CF
:1017F000442311F4E2E002C0E42FE150FF27E75652
:10180000F24F82819927282B392B80916D07909177
:101810006E072817390709F085C080E00E94340B55
:101820003091120680915B0720915C07982F9F5F93
:10183000963008F090E0921709F474C0E82FFF2763
:10184000E55AF84F32838F5F80935B07863010F044
:1018500010925B070E94820265C0823008F44EC07D
:10186000E0919A0DFF27E756F24F8281482F5527C6
:10187000342F20919F03822F8695869586958370BD
:1018800099278130910519F00297F9F40EC0277E4F
:10189000206120939F03442311F485E001C080E080
:1018A0008093A0033093460310C08091A00384333B
:1018B00060F4E0914B03F0914C03E80FF11D40837D
:1018C0008091A0038F5F8093A00380919A0DE82FF1
:1018D000FF27E756F24F62818F5F80939A0D833026
:1018E00010F010929A0D772780916D0790916E07F6
:1018F0000E94260B90936E0780936D078091990D3F
:10190000E82FFF27E756F24F12838F5F8093990DE0
:10191000833010F01092990D8091B4098F5F8093FD
:10192000B40934C010929A0D1092990D1092DA05F4
:101930001092B4091092540E1092120610926E0773
:1019400010926D078091AF038D7F8093AF0381E08C
:101950000E94340B80919E03882331F084E08093B1
:10196000DA050E94BE0A12C0002381F081E023CF75
:1019700080919F03982F917080FDEFCEF1CE8091E2
:101980009D0D9927382F222742E036CF1F910F91C6
:1019900008951F920F920FB60F9211242F933F9329
:1019A0004F935F936F937F938F939F93AF93BF9367
:1019B000EF93FF935F9B3DC06CB1E0917107F09195
:1019C00072073097F9F08091370F9091380FE80F38
:1019D000F91F608301969093380F8093370F209101
:1019E000D10F3091D20F8217930718F1109272071E
:1019F0001092710780910A098330D9F0579810929C
:101A00000A0917C06E3719F460E081E010C08091B8
:101A1000AF036D3721F482608093AF030AC081FF6A
:101A200005C08D7F8093AF0380E2682780E00E942D
:101A3000740BFF91EF91BF91AF919F918F917F9127
:101A40006F915F914F913F912F910F900FBE0F902B
:101A50001F901895982F8D57823068F48091AF03AE
:101A600081608093AF0380E28927809377098DE7B7
:101A700080936B0402C090936B0461E070E08BE68E
:101A800094E00E94E90A9927089578941F920F9292
:101A90000FB60F921124FF920F931F932F933F9332
:101AA0004F935F936F937F938F939F93AF93BF9366
:101AB000CF93DF93EF93FF9320910F0630911006A1
:101AC0008091EC0D9091ED0D2817390780F4E0918D
:101AD000E206F091E306E20FF31F80812F5F3F4F94
:101AE0003093100620930F060E94E20AD0C0109295
:101AF000E3061092E2061092110656988091AF0309
:101B000080FF0EC08E7F8093AF0380917709809312
:101B10006B0461E070E08BE694E00E94E90AB7C0D4
:101B200080917109843009F494C0853040F482308A
:101B300021F18330B8F5813009F0A4C00DC08630A2
:101B400009F495C0863008F48BC0873009F496C03C
:101B5000883009F097C099C08091D7060E942A0D5D
:101B6000182F83E0809371096091D70680916B0FE5
:101B700090916C0F0E94260B10C08091BD0E0E94A8
:101B80002A0D182F83E0809371096091BD0E80911A
:101B90006B0F90916C0F0E94260B90936C0F8093AB
:101BA0006B0F6EC0FFB6F894E091E107FF27EE0FD0
:101BB000FF1FE751F94F80810E942A0D082F1091D5
:101BC000E107C12FDD27FE01EE0FFF1FE751F94F9F
:101BD000608180916B0F90916C0F0E94260B909307
:101BE0006C0F80936B0F2091BF062F5F2093BF0671
:101BF000113039F58091A603E091A103F091A20381
:101C0000E80FF11DE0818F5F8093A6039091A503FB
:101C1000981730F482E08093EA0640E050E002C07A
:101C20004E2F5527DE01AA0FBB1FFD01E851F94FCA
:101C30008081823031F02F3F21F0A751B94F4C9372
:101C400003C084E080937109102F8F2D99278FBFD7
:101C500017C080916B0F0E942A0D182F85E00BC0D2
:101C600080916C0F0E942A0D182F86E004C00E94FC
:101C7000160B182F87E08093710902C088E003C01B
:101C8000112329F089E0809371090E948202FF915B
:101C9000EF91DF91CF91BF91AF919F918F917F9104
:101CA0006F915F914F913F912F911F910F91FF90F5
:101CB0000F900FBE0F901F9018951F920F920FB6A6
:101CC0000F9211248F9380919B0087FF02C0809117
:101CD0009C008F910F900FBE0F901F9018957894D5
:101CE0001F920F920FB60F9211240F900FBE0F90FC
:101CF0001F90189578941F920F920FB60F9211248F
:101D00000F900FBE0F901F90189578941F920F920E
:101D10000FB60F9211240F900FBE0F901F901895C1
:101D200078941F920F920FB60F9211240F900FBE4E
:101D30000F901F90189578941F920F920FB60F92E4
:101D400011248F939F9380918800909189009F9197
:101D50008F910F900FBE0F901F90189578941F923F
:101D60000F920FB60F9211242F933F938F939F934F
:101D70002FB7F894332780916B0790916C070196E9
:101D800090936C0780936B072FBF9F918F913F912A
:101D90002F910F900FBE0F901F9018951F920F92CA
:101DA0000FB60F9211242F933F934F935F936F932E
:101DB0007F938F939F93AF93BF93EF93FF9383B7DB
:101DC00083BF00B600FCFDCF81B799270196AA27F3
:101DD000BB272091E5033091E6034091E703509142
:101DE000E803280F391F4A1F5B1F2093E503309338
:101DF000E6034093E7035093E80378940E94210A96
:101E0000FF91EF91BF91AF919F918F917F916F91D2
:101E10005F914F913F912F910F900FBE0F901F90A8
:101E2000189578941F920F920FB60F9211240F906D
:101E30000FBE0F901F90189578941F920F920FB6B7
:101E40000F9211240F900FBE0F901F901895789449
:101E50001F920F920FB60F9211242F933F938F93DF
:101E60009F932FB7F89433278091BC069091BD06BD
:101E700001969093BD068093BC062FBF9F918F91D2
:101E80003F912F910F900FBE0F901F9018951F92AA
:101E90000F920FB60F9211240F900FBE0F901F904C
:101EA00018951F920F920FB60F9211240F900FBE2C
:101EB0000F901F9018951F920F920FB60F9211243A
:101EC0000F900FBE0F901F9018951F920F920FB694
:101ED0000F9211240F900FBE0F901F9018951F9214
:101EE0000F920FB60F9211240F900FBE0F901F90FC
:101EF00018951F920F920FB60F9211240F900FBEDC
:101F00000F901F9018951F920F920FB60F921124E9
:101F10000F900FBE0F901F901895AF92BF92CF9267
:101F2000DF92FF920F931F93CF93DF936C01EC012D
:101F30008A81882359F4D092CA0EC092C90E8A8130
:101F4000882309F07FC01092B4037CC0442309F4B5
:101F500071C0F601A080B1808091E903843009F05E
:101F600046C0C5010E94FA042091E903622F0E9435
:101F70007948492F9217D8F5992359F4809127076A
:101F80009927019664E070E00E94994880932707A2
:101F900029C080912707840F912D911D9C012370EA
:101FA0003070E901CC0FDD1FCC0FDD1FC20FD31F36
:101FB000019664E070E00E949948FC01EE0FFF1F5B
:101FC000EE0FFF1FE80FF91FC459DB4FE459FB4F19
:101FD00085E0019009928150E1F74F5F8091E9031C
:101FE0004817B8F28091E90381508093E903F0909B
:101FF000E903809127078F0D912D911D83709070BB
:102000008C01000F111F000F111F080F191F045919
:102010001B4FC5010E94F004E80199838883F501F4
:102020003C9682858A8382818C8383858B83F3941B
:10203000F092E903F601808191810E943D05C6017D
:102040000E945C05DF91CF911F910F91FF90DF906F
:10205000CF90BF90AF9008951F920F920FB60F923E
:1020600011242F933F934F935F936F937F938F939D
:102070009F93AF93BF93EF93FF9344B155B178947F
:102080008FB7F894992720918204322F36953170BA
:1020900021708FBF2223D9F433988091200781309B
:1020A00021F0823009F039C00AC0332351F0509337
:1020B000700940936F098DE00E9415022EC03323F2
:1020C00019F40E94A30929C01092200726C08FB7D7
:1020D000F89499278FBF2FB7F894332786B1582FDC
:1020E0005770482F4072987D942B952B8074977B66
:1020F000982B90619F77892F992786B9887D842BAB
:10210000852B87738061992786B9887D842B852BE1
:10211000877B8069992786B92FBFFF91EF91BF9187
:10212000AF919F918F917F916F915F914F913F916F
:102130002F910F900FBE0F901F9018951F920F9226
:102140000FB60F9211248F9383B783BF00B600FCA4
:10215000FDCF8F910F900FBE0F901F9018950F938A
:102160001F93CF93DF93182F8FB7F894C82FDD27D5
:102170000C2F61E080E00E944404882321F0CFBF4F
:1021800085E090E020C0809154038823A1F48091E1
:10219000BE03823081F409C082E08093BE031092B6
:1021A00054030E946A04B89AC0981093510380E0C7
:1021B0000FBF992708C08091BE03882369F30E944E
:1021C0008D0681E0F5CFDF91CF911F910F9108959A
:1021D00060E080E00E948705992708958FB7F89402
:1021E000992720912A0A2093500323E02093B903D2
:1021F0008FBF80915003882319F0813079F408C093
:1022000081E0809320071092BE0E0E94A3090895DA
:10221000809320078093BE0E0E94A3090895EF9239
:10222000FF920F931F93CF93DF93982F8FB7F8945C
:10223000E82E8091B903833009F045C080915003A6
:10224000891709F040C08091E207882309F046C051
:102250003EC0EF2DE695E695E695FF274F2D5527D5
:10226000EE51F84F9A012770307081E090E002C083
:10227000880F991F2A95E2F78095208128232083D3
:10228000C093B80311C02196C230D10511F4C0E04B
:10229000D0E0FC2E8C2F0E9434098823D1F6C01781
:1022A000D10789F74FEF50E040932A0A8FEF8093D0
:1022B000500381E08093B9038CE00E941502EFBEC9
:1022C00080E090E011C0EFBE81E090E00DC082E0C0
:1022D000809350031092B9033798F1CF8091B803DF
:1022E000082F1127E801CFCFDF91CF911F910F91D8
:1022F000FF90EF9008950F931F93CF93DF93CDB787
:10230000DEB722970FB6F894DEBF0FBECDBF109296
:10231000200700916F09109170098091BE0E8823EB
:1023200019F0813049F404C080E00E940F110AC006
:1023300081E00E940F114DC0882321F0813009F007
:1023400050C047C0CE0101960E94E80189819A8160
:102350008093E70D892F99278093E60D2091D7056B
:102360003091D80580914E0390914F038093E50DF5
:10237000892F99278093E40D2093EB0D232F33278A
:102380002093EA0D8091B6039091B7038093E90DF5
:10239000892F99278093E80D80919403909195035C
:1023A0009A8389838093E30D892F99278093E20D87
:1023B0001093B7030093B60381E00E944809882375
:1023C00081F0DA98D8988091EB078D7F8093EB07A6
:1023D00008C08FB7F89499271093B7030093B603FA
:1023E0008FBF22960FB6F894DEBF0FBECDBFDF9130
:1023F000CF911F910F9108950F931F93182F0FB72F
:10240000F89461E080E00E944404882371F5109301
:102410005103809154038823A9F58091BE03823033
:1024200089F581E10CC00E946A048091BE03882373
:1024300049F481E08093BE031092B90483E10E94C5
:1024400015022AC08091D6068F3F31F5E0915303E3
:10245000EE2311F11CC01092520304C0FF27EA5270
:10246000F94F10821092530317C081E090E002C030
:10247000880F991F1A95E2F72091BD03282B20930E
:10248000BD030AC08091BE038823E1F6CCCF8091C2
:1024900052038F3F19F7DFCF802F99278FBF80E03E
:1024A00090E01F910F9108951F9383E00E94AF1059
:1024B0009927182F882319F083E00E94FC11812F9F
:1024C00099271F9108951F938FB7F894282F3327CA
:1024D000122F80914C0F882321F02FBF81E090E0D4
:1024E00013C081E080934C0F8091BA039091BB039D
:1024F000049721F481E00E94FC1103C08FE00E9448
:1025000015021FBF80E090E01F9108958091B203F3
:102510008C3118F04CE150E002C0482F55278CE177
:10252000EFE0FFE011928A95E9F79091B203809174
:10253000B00320E030E0AFE0BFE00FC0E82FFF279E
:10254000E256F34FE081992329F08F5F8A3F09F427
:1025500080E09150ED932F5F3F4F2417350771F7BF
:102560009093B2038093B0034CE163E07FE08FEF80
:102570009FEF0E942903882319F088E00E9415022A
:1025800008951F93182F8091B303813049F48091EF
:10259000B2038D3728F082E08093B3030E94861245
:1025A0008FB7F894282F33279091B2039A3FA8F45D
:1025B0008091B103E82FFF27E256F34F10838F5F1E
:1025C0008093B1038A3F11F41092B1039F5F9093FF
:1025D000B2032FBF80E090E003C02FBF8FEF9FEFCB
:1025E0001F910895662359F48091B203882319F04E
:1025F0000E948612089581E08093B303089588E0D5
:102600000E9415020895CF92DF92FF920F931F93BD
:10261000CF93DF93082F6B01F42EE82FFF27EE0FE7
:10262000FF1FE959F84F1182108280914D039927BD
:10263000019662E070E00E949948682F80934D03F4
:1026400010E0462F5527FA01EE0FFF1FE959F84F0A
:10265000A081B181109799F0E62FE695E695E69571
:10266000FF27EE53F14F808199279A012770307030
:1026700002C0959587952A95E2F780FF0DC0CA01A3
:10268000019662E070E00E949948682F1F5F123047
:10269000C1F610934D031AC060934D036230B0F43D
:1026A000FD01359624813327ED016D817727762F43
:1026B000662781819927682B792BAD0186810E943D
:1026C0009502882319F087E00E941502002319F073
:1026D000013041F405C06F2DC6010E94F21202C004
:1026E0001092B503DF91CF911F910F91FF90DF9072
:1026F000CF9008958FB7F894282F33278091B30394
:10270000823021F42FBF80E090E0089590E0809126
:10271000B203882309F491E0992321F02FBF81E0CF
:1027200090E0089582E08093B3032FBF0E94861249
:1027300080E090E008950F931F93CF93DF938C0177
:10274000EB018091B503882339F58C859927982F63
:1027500088272D853327822B932B9F938F9380E09F
:1027600091E09F938F930E94EB430E947A13A6E21D
:10277000B6E0FE0180E101900D928150E1F781E029
:102780008093B50380E18093670489E00E9415027D
:102790000F900F900F900F90C801DF91CF911F9174
:1027A0000F9108952F923F924F925F926F927F9276
:1027B0008F929F92AF92BF92CF92DF92EF92FF9251
:1027C0000F931F93CF93DF93CDB7DEB721970FB64B
:1027D000F894DEBF0FBECDBF7B018C0120E030E05E
:1027E00040E050E00E94A24787FD03C020E2298319
:1027F00006C017FB109517F910958DE28983C80163
:10280000B7010E947B471B012C0197FD03C00E946A
:10281000984714C06170707080709070A20191012F
:102820005695479537952795622B732B842B952BBF
:102830000E9498479B01AC010E94F3469B01AC01AA
:10284000C801B7010E94F2467B018C0120E030E014
:1028500040E251E40E9412480E947B473B014C0138
:1028600020E030E048EC52E4C801B7010E94124871
:102870000E947B475B016C0120E030E04AE754E4B2
:10288000C801B7010E9412480E947B472AE030E04D
:1028900040E050E00E94AC4877277F936F93C601D9
:1028A000B5012AE030E040E050E00E94AC487727D4
:1028B0007F936F93C401B3012AE030E040E050E021
:1028C0000E94AC4877277F936F935F924F923F921D
:1028D0002F92E9818E2F992787FD90959F938F9353
:1028E00089E091E09F938F930E94EB430E947A13BB
:1028F0008DB79EB70E960FB6F8949EBF0FBE8DBFD4
:1029000021960FB6F894DEBF0FBECDBFDF91CF91F9
:102910001F910F91FF90EF90DF90CF90BF90AF90FD
:102920009F908F907F906F905F904F903F902F90EF
:1029300008950F931F93CF93DF93CDB7DEB7229700
:102940000FB6F894DEBF0FBECDBF8C01CE0101964D
:102950000E94E801000F111F0B561A4FD801ED918C
:10296000FC9180916B0390916C038E179F071CF470
:1029700081E090E03BC080912C0790912D079F93C0
:102980008F9380912A0790912B079F938F93898132
:102990009A819F938F93EE0FFF1FE85DF84F808120
:1029A00091819F938F9388E191E09F938F930E94F1
:1029B000EB430E947A1340E050E0D801ED91FC9186
:1029C000EE0FFF1FE85DF84F8DB79EB70A960FB662
:1029D000F8949EBF0FBE8DBF2081318189819A817D
:1029E0008217930710F041E050E0CA0122960FB61B
:1029F000F894DEBF0FBECDBFDF91CF911F910F9135
:102A00000895CF93DF93EC01892B31F0809171030E
:102A100090917203019739F0809171039091720344
:102A200018161906ECF5CE010E947808282F80911F
:102A30003A042817D1F0382F315030933A0413C09C
:102A4000822F992743E0880F991F4A95E1F7DC010F
:102A5000A353BB4FFC01EB52FB4F88E001900D925A
:102A60008150E1F72F5F231758F38091D40D909197
:102A7000D50D8C179D07A1F48FEF9FEF9093D50D87
:102A80008093D40D1092D70D1092D60D1092D80DC0
:102A90001092D90D81E08093CF0383E20E9415024A
:102AA000DF91CF9108951F93CF93DF93EC01162F01
:102AB00080916403882319F5CE010E947808E82FDD
:102AC00080913A04E81748F4FF2753E0EE0FFF1F08
:102AD0005A95E1F7E353FB4F17838091D90D882373
:102AE00011F0112349F08091D40D9091D50D8C17E0
:102AF0009D0729F4112319F083E20E941502DF914A
:102B0000CF911F91089580915B0390915C03892B75
:102B100019F480E090E0089562E084E00E94870567
:102B200090E0882309F491E081E09827892F992784
:102B30000895FF920F931F93CF93DF93F82E8B018D
:102B40008FB7F894C82FDD2760E080E00E948705EA
:102B5000882321F0CFBF80E090E00CC0CFBF8F2D45
:102B60000E94CD06812F99270E94CD06802F0E94BA
:102B7000CD069927DF91CF911F910F91FF90089576
:102B80001F931FB7F8948091B704882319F460E06D
:102B900070E009C060E08091C80E882309F461E00C
:102BA00081E06827772780911906882319F480E04F
:102BB00090E00AC090E080910F0A882309F491E028
:102BC00081E09827892F9927762F6627770F770F2F
:102BD000770FE4E0880F991FEA95E1F7826E926221
:102BE000682B792B81E10E949915812F99278FBF3E
:102BF0001F9108958FB7F894992760912B0A8FBF82
:102C000085E0689FB0011124625D7E4F706488E1A9
:102C10000E94991508951F93CF93DF93182F8FB7B4
:102C2000F894C82FDD2760E080E00E9487058823A4
:102C300021F0CFBF80E090E005C0CFBF812F0E9480
:102C4000CD069927DF91CF911F91089589E00E94C9
:102C50000B169927089583E00E940B169927089573
:102C6000CF93DF938FB7F894C82FDD278091BA03F5
:102C70009091BB03049721F0CFBF81E090E006C0A4
:102C800083E00E940B16CFBF80E090E0DF91CF91F0
:102C900008951F938091BD03882309F04BC01091C4
:102CA00051031F3F09F046C060E00E94870588235A
:102CB00009F440C081E080939C0C80913B04882300
:102CC000E1F110929C0C85E090E045C0923069F5EE
:102CD000C09A8091520320E030E08F3F11F421E050
:102CE00030E0232BE9F4109354038F3F19F42FEFB6
:102CF00030E00DC0282F3327F901EA52F94F8081C7
:102D0000809352038F3F11F4109353031083209349
:102D1000B90481E08093BE0383E10E94150205C0DF
:102D2000109354031092BE0311C08091BE038823F8
:102D300069F00FC081E090E00EC080915403909143
:102D4000BE03882319F2923021F0EFCF80E00E9479
:102D50005E0480E090E01F9108951F93CF93DF936E
:102D60009FB7F894C92FDD271C2F90915103981716
:102D700021F0CFBF81E090E036C08FEF8093510308
:102D80003091BD033323D1F40E948D060E94491671
:102D9000CFBF11C02093510381E090E002C0880FA3
:102DA000991F4A95E2F7809538233093BD0381E15E
:102DB0000E9415021FBF80E090E015C080E065E032
:102DC000E32FFF270E947948292F492F5527CF014C
:102DD000042E02C0959587950A94E2F780FDDACF1C
:102DE000822F8F5FEFCFDF91CF911F91089583E006
:102DF0000E94AD1699270895EF92FF921F93CF93EB
:102E0000DF93E0904E06F0904F06F70182A59927D8
:102E1000182F882309F414E1C09880918104811748
:102E200049F0612F77276F717070606E706885E16F
:102E30000E94991510938104F70110818FB7F894BF
:102E4000C82FDD2760E080E00E948705882311F00D
:102E5000CFBF12C0CFBF8EE390E09093E506809382
:102E6000E4068EE30E94CD061150412F552760E005
:102E700070E0C7010E944707DF91CF911F91FF903B
:102E8000EF900895CF92DF92EF92FF920F931F93EE
:102E9000CF93DF938C01F62E6A01E22E8FB7F89460
:102EA000C82FDD2760E080E00E948705882321F09D
:102EB000CFBF80E090E01EC0CFBF0F0D111D802F4F
:102EC00080680E94CD06F82E16950795802F807C8D
:102ED0000E94CD060E2D0AC0EE2DFF27E01BF10942
:102EE000EC0DFD1D80810E94CD0601500023A1F74D
:102EF0008F2D9927DF91CF911F910F91FF90EF9028
:102F0000DF90CF900895CF93DF93CDB7DEB72497AE
:102F10000FB6F894DEBF0FBECDBF8FB7F8949927D8
:102F200020911306309114062983232F33272A83F7
:102F30002091DC063091DD062B83232F33272C8351
:102F40008FBF24E0AE014F5F5F4F60E088E691E005
:102F50000E94421724960FB6F894DEBF0FBECDBF75
:102F6000DF91CF910895EF92FF920F931F93CF932C
:102F7000DF93182F7B01042F8FB7F894C82FDD271C
:102F800060E080E00E948705882321F0CFBF80E0C9
:102F900090E014C0CFBF1064812F99279093E5066D
:102FA0008093E4060E94CD06182F402F5527B701C5
:102FB00080E090E00E944707812F9927DF91CF9111
:102FC0001F910F91FF90EF900895C0986091DE03DC
:102FD0007091DF0341E08FE30E94B317089582E010
:102FE00090E0909364048093630481E08093D9051A
:102FF00020E030E080915103843011F421E030E092
:10300000232B29F484E00E94AF10882319F40E9436
:10301000E517089584E00E94FC1108951F93CF9353
:10302000DF938FB7F894C82FDD271C2F809163049E
:1030300090916404892B29F484E00E94AD16CFBFDF
:103040001EC01092D9058091B804882311F0B79959
:1030500004C00E9908C0882319F081508093B804E9
:103060000E94EF170BC081E090E09093640480937E
:1030700063041092B80484E00E94AD161FBFDF9174
:10308000CF911F9108950E949406C09AC09888E03D
:103090000E940B1688E00E940B16C09A84E00E94E2
:1030A000AD160E940E1808951F920F920FB60F9240
:1030B00011242F933F934F935F936F937F938F933D
:1030C0009F93AF93BF93EF93FF938091630490918D
:1030D0006404019749F482E090E090936404809343
:1030E00063040E94EF1705C08091B8048F5F80933E
:1030F000B804FF91EF91BF91AF919F918F917F9114
:103100006F915F914F913F912F910F900FBE0F9054
:103110001F9018954091D40D5091D50D2FB7F8946C
:10312000332781E08093EA038091CD099091CE0905
:103130009093D50D8093D40D1092D70D1092D60D8B
:1031400010927203109271032FBF4F5F5F4F19F4FB
:1031500080E20E94150280E090E008951F93182FEE
:1031600081E090E09093C1038093C00310923B04F0
:103170000E9449168FB7F89499271093BF038FBF09
:1031800086E10E9415021F9108950F931F930FB7B8
:10319000F89411271092C1031092C00387B78F7E55
:1031A00087BF87B78F7D87BF83E00E94AD16C09A27
:1031B0000FBF0FB7F89411271092640410926304A4
:1031C0000E949406C09A89B78F7B89BF0FBF80E0A9
:1031D00090E01F910F9108950E94C5180E94C306A8
:1031E00085E10E94150208950F931F938C010E94A0
:1031F0003C03DC01CB0166E371E00E9485480B963D
:103200009093F8038093F703F80182A99927982FE8
:10321000882723A93327822B932B892B69F00E94BF
:103220003C03DC01CB0168E270E00E9485480B960C
:103230009093F8038093F7031F910F9108951F93C4
:10324000CF93DF93162FC0E0D0E06AE10E947C04A8
:10325000FC0181818123811711F4C1E0D0E0CE010E
:10326000DF91CF911F910895CF93DF93EC016AE135
:103270000E947C04FC01848125819927982F88274E
:103280003327822B932B9093D5088093D408809179
:10329000D4039091D5030197B1F42FB7F894332755
:1032A00080912B0A2FBF2091D0033091D103992711
:1032B0008217930741F08FB7F894992720932B0A30
:1032C0008FBF0E946312CB5DD54031F48091CE0355
:1032D000882311F01092CE03DF91CF91089562E020
:1032E00081E00E948705882379F08FB7F8949927A9
:1032F00023E02093D7098FBF0E94C5180E94C30600
:1033000085E10E9415021DC060E081E00E948705F2
:10331000882319F089E090E0089564E081E00E943C
:103320008705882341F08FB7F894992723E02093ED
:10333000D7098FBF06C063E081E00E94870588231C
:1033400019F080E090E0089585E090E008958FB74F
:10335000F89499272091DB098FBF222339F40E942A
:103360006F19882319F08CE10E9415020895DF92ED
:10337000EF92FF920F931F93DFB6F89400914E06E1
:1033800010914F060E943C03DC01CB0166E470E023
:103390000E9485480B9690934B0F80934A0FF8013B
:1033A00082A923A99927982F88273327822B932B2B
:1033B000892B69F00E943C03DC01CB016EE170E0D7
:1033C0000E9485480B9690934B0F80934A0FE09094
:1033D0004A0FF0904B0F002711270E94A405A80167
:1033E00097010E9461068D2D99278FBF1F910F9124
:1033F000FF90EF90DF9008951F93CF93DF938FB7E7
:10340000F894C82FDD271C2F8091C0039091C10331
:103410000897C9F489E00E940B1683E00E94AD165C
:10342000C09A81E090E09093C1038093C0038FB76E
:10343000F894992723E02093BF038FBF86E10E9471
:103440001502CFBF30C0C0988091520F882311F071
:1034500085E001C084E00E940B1683FD09C080E076
:103460000E940B1683FF04C085E090E020E003C0BB
:1034700083E090E021E09093C1038093C003C09A61
:103480001FBF222341F01092E20383E00E94AD1699
:103490000E94B71908C00E94A40520E431E040E072
:1034A00050E00E946106DF91CF911F9108957894BA
:1034B0001F920F920FB60F9211242F923F924F92AC
:1034C0005F926F927F928F929F92AF92BF92CF92B4
:1034D000DF92EF92FF920F931F932F933F934F939F
:1034E0005F936F937F938F939F93AF93BF93CF938C
:1034F000DF93EF93FF93CCB5DDB580E286BF8FB746
:10350000F894282E0E94A4059E01261B370B290142
:10351000662457FC6094762C460E571E681E791E52
:103520008091C0039091C1038530910521F00697E9
:1035300009F0E0C0BFC086E090E09093C1038093A3
:10354000C00331E0332E3092D5051092C20380E0E3
:103550000E940D09E0914E06F0914F0641AABB274B
:10356000A72D962D852D80ABC301AA27BB2787A742
:10357000872D9927AA27BB2786A7E0914E06F091B1
:103580004F0685A5882309F484C06081655077279C
:103590004F01860E971EF4012081E1808281A38075
:1035A0009927AA27BB27BA2FA92F982F8827332717
:1035B00044275527522F442733272227FF2400274B
:1035C00011278701FF24EE242E293F29402B512B60
:1035D000BB24CC24DD242A293B294C295D29822BBC
:1035E000932BA42BB52B84199509A609B7098383BE
:1035F000292F3A2F4B2F552722839D0144275527EA
:1036000021838B2F9927AA27BB278083C09824E08A
:10361000A40180E090E00E944217C09AF40120814A
:10362000E1808281A3809927AA27BB27BA2FA92FDF
:10363000982F8827332744275527522F442733278D
:103640002227FF24002711278701FF24EE242E299B
:103650003F29402B512BBB24CC24DD242A293B2994
:103660004C295D29822B932BA42BB52B840D951D02
:10367000A61DB71D8383292F3A2F4B2F5527228351
:103680009D014427552721838B2F9927AA27BB27E4
:103690008083E0914E06F0914F06818185FF02C044
:1036A00030923B0483E00E94AD1687B78F7E87BFC0
:1036B00084997AC01092D50581E00E940D09E091AD
:1036C0004E06F0914F06818185FF0FC087E090E0A4
:1036D0009093C1038093C0030E94A40520E031E0D1
:1036E00040E050E00E94610603C080E00E94AE18F6
:1036F000849B5AC08091C203882391F58091D5059F
:10370000882371F511E01093D5050E940D0980B34F
:103710002091B50E283098F4E091C10EE20FFF27FA
:10372000E770F070EE0FFF1FEE0FFF1FE55AF14F2D
:1037300040825182628273822F5F2093B50E109374
:10374000C203D093E706C093E60684992DC099275B
:1037500054E0969587955A95E1F7182F117001C09E
:1037600010E08091D5058130F9F41092D5050E94C2
:103770000D091092C2031123B9F48091E6069091CD
:10378000E706C81BD90B2A9778F48091B50E8823D9
:1037900019F081508093B50E80914E0690914F069E
:1037A000009711F00E9425092FBEFF91EF91DF9144
:1037B000CF91BF91AF919F918F917F916F915F91C9
:1037C0004F913F912F911F910F91FF90EF90DF90BC
:1037D000CF90BF90AF909F908F907F906F905F90B1
:1037E0004F903F902F900F900FBE0F901F90189505
:1037F00078941F920F920FB60F9211241F932F935C
:103800003F934F935F936F937F938F939F93AF9368
:10381000BF93EF93FF9387B78F7E87BF78941FB7CF
:10382000F8948091C0069091C106A091C206B09113
:10383000C3060097A105B10509F051C08091C003EE
:103840009091C1038530910561F18630910530F486
:103850008330910549F0049781F51AC087309105AE
:10386000F1F0089751F514C0869B0FC084E090E0FA
:103870009093C1038093C0030E94A40527E030E029
:1038800040E050E00E94610618C00E94B71915C0C0
:103890000E945412882389F40E94FC190EC080E013
:1038A0000AC089E00E940B1681E00E940D0983E0A6
:1038B0000E94AD1687E00E94AE188091BA039091E5
:1038C000BB03019771F482E090E09093BB03809377
:1038D000BA03DE98DE9A80E00E94FC1102C00E94CA
:1038E000C105812F99278FBFFF91EF91BF91AF91B4
:1038F0009F918F917F916F915F914F913F912F9108
:103900001F910F900FBE0F901F901895EF92FF928E
:103910000F931F93CF93DF938B018091E4069091D7
:10392000E50686FF40C18F7B8F3309F087C1C091C8
:10393000DE03D091DF03588150936A0480916304C1
:10394000909164048530910509F443C08630910557
:1039500009F48AC0029709F01FC185E090E09093B6
:1039600064048093630440913504852F9927019660
:10397000242F3327281739074CF1B79906C00E9921
:1039800004C0451B41504093350440916A044A32BB
:10399000E8F44423A1F0BE016F5F7F4F483018F078
:1039A00047E050E007C086E090E090936404809385
:1039B0006304552780E090E00E9447073FC11092C2
:1039C000D905C09A84E00E94AD16E3C00E94431856
:1039D00035C186E090E09093640480936304809105
:1039E0001906882309F439C080910F0A8823A9F5A4
:1039F000898185FF32C08F814E812FB7F89433279C
:103A00006091DC067091DD062FBF9927982F8827DB
:103A10005527842B952B8617970759F08F812E8178
:103A20009927982F88273327822B932B8F5F9F4FBF
:103A3000A1F489818770813081F4C09AC0988AE0AE
:103A40000E940B16C09AC09840916A04475028966D
:103A5000BE018FE30E94B317F1C040916A04475042
:103A600055272896BE01A6CFC09A8091B804882316
:103A700039F484E00E94AD168091B804882311F0D7
:103A8000B7990AC00E9B08C09091B50E992321F0FA
:103A900080916A048B3038F48091DE039091DF03CB
:103AA0000E9425093DC0913001F5E091C10EFF272C
:103AB000EE0FFF1FEE0FFF1FE55AF14F20813181FE
:103AC00042815381E091DE03F091DF0321ABBB27FC
:103AD000A52F942F832F80ABCA01AA27BB2787A7C6
:103AE000252F33274427552726A78091C10E9927D4
:103AF000019668E070E00E9499488093C10E809121
:103B0000B50E81508093B50E882351F08091DE036D
:103B10009091DF030E9425091092C10E1092B50EFC
:103B200080916A04FE01E80FF11D808187FF31C09A
:103B3000012B79F169816770E091DE03F091DF0379
:103B4000623019F5A0914E06B0914F06109709F119
:103B50008091C0039091C1030797D9F4ED019B8137
:103B600083819817B1F487B78F7E87BF908181E0FA
:103B70008CA7E90FF11D8291319688A780818F77FC
:103B800089A780E00E94AE1804C0613011F487E17B
:103B90002AC00E940E1852C01092D905C09A84E023
:103BA0000E94AD164BC08E3309F048C0C09A809178
:103BB000C0039091C1030897C9F4C09889E00E949E
:103BC0000B16C09A83E00E94AD1681E090E09093BE
:103BD000C1038093C0038FB7F894992723E0209303
:103BE000BF038FBF86E10E94150228C08091520F4B
:103BF000882349F484E090E09093C1038093C0034C
:103C00000E94FC191BC083E00E94AD1683E090E087
:103C10009093C1038093C00380914E0690914F060C
:103C20000E94F418E090F703F090F80300271127A2
:103C30000E94A405A80197010E946106DF91CF911F
:103C40001F910F91FF90EF9008951F920F920FB662
:103C50000F9211242F933F934F935F936F937F9312
:103C60008F939F93AF93BF93EF93FF932FB1E09107
:103C7000D208F091D308309739F080916507909180
:103C80006607E80FF91F208380916507909166070A
:103C90000196909366078093650780E00E94640414
:103CA0004091E0035091E103809165079091660790
:103CB0008417950718F40E94D9061CC06091D20899
:103CC0007091D3088091CB0E9091CC0E1092D308B6
:103CD0001092D2081092CC0E1092CB0E1092E103EB
:103CE0001092E00310926607109265072FB120E052
:103CF0000E94861CFF91EF91BF91AF919F918F9190
:103D00007F916F915F914F913F912F910F900FBED7
:103D10000F901F90189561E081E00E944404882371
:103D2000E9F48FB7F894282F33278091BA03909144
:103D3000BB03892B11F02FBF20C081E090E090934E
:103D4000BB038093BA032FBFDD9A0E94A40524E130
:103D500030E040E050E00E9461060FC062E081E088
:103D60000E948705882319F089E090E0089561E0BA
:103D700081E00E948705882319F080E090E0089593
:103D800085E090E008950E948B1E882319F08EE153
:103D90000E9415020895AF92BF92CF92DF92EF92E8
:103DA0000F931F935B016C010E94FE03AB01BC01EA
:103DB00081E0E82E9601850188E00E94DF031F91D3
:103DC0000F91EF90DF90CF90BF90AF900895AF929A
:103DD000BF92CF92DF92EF920F931F935B016C0122
:103DE0000E94FE03AB01BC0191E0E92E9601850122
:103DF00082E00E94DF031F910F91EF90DF90CF9040
:103E0000BF90AF900895AF92BF92CF92DF92EF92A2
:103E10000F931F935B016C010E94FE03AB01BC0179
:103E200021E0E22E9601850184E00E94DF031F91CC
:103E30000F91EF90DF90CF90BF90AF900895609179
:103E40005F0370916003882799270E94031F0895DC
:103E50000F931F9380915B0390915C03892B09F46E
:103E60004EC062E084E00E948705882309F447C0C1
:103E70008091CD0E9091CE0E01969093CE0E8093B0
:103E8000CD0E019761F48EE138C060915F037091AF
:103E90006003882799270E94031F1FBF30C08FB778
:103EA000F894182F00E014C08091D905882369F791
:103EB000869B81E0882319F00F5F043030F78091F2
:103EC000CD0E9091CE0E01969093CE0E8093CD0E96
:103ED0008091CD0E9091CE0E8059914030F460E0EB
:103EE00085E00E9487058823F9F61FBF60E085E022
:103EF0000E948705882319F08DE10E9415021F9109
:103F00000F910895AF92BF92CF92DF92EF920F93ED
:103F10001F935B016C010E94FE03AB01BC0131E009
:103F2000E32E960185018EE00E94DF031F910F9121
:103F3000EF90DF90CF90BF90AF900895CF92DF9237
:103F4000EF92FF920F931F936C017B010E943C0341
:103F5000DC01CB01B6010E948548E80EF91E00275E
:103F60001127C801B7010E94821F1F910F91FF9076
:103F7000EF90DF90CF9008950F931F93CF93DF932F
:103F8000EC01E091C703FF27EE0FFF1FE05FF54F45
:103F900000811181662329F06CE170E08CE190E0F2
:103FA0002FC08091C60383FF3DC08CA58823D1F527
:103FB0008F812E819927982F88273327822B932B47
:103FC0000E94B701982F8F3F71F08BE0989FF0010E
:103FD0001124ED58F84F82858F5F8287853018F065
:103FE000CF010E94BE0483E20E941502F801838182
:103FF00081508383882339F067E070E087E090E0A8
:104000000E949E1F3FC00E94D5048091C6038F7EF0
:104010008093C60367E070E087E090E00E949E1FF7
:1040200040E02CC00E94D5048091C6038F7E80930F
:10403000C60367E070E087E090E00E949E1F8F81DA
:104040002E819927982F88273327822B932B0E9424
:10405000B701982F8F3F89F08BE0989FF0011124D2
:10406000ED58F84F81858F5F818782858F5F8287CA
:10407000853018F0CF010E94BE0441E0BE01C801A6
:104080000E948D0F4091D0035091D1035093CC04E6
:104090004093CB048091200390912103892B19F147
:1040A0004115510501F18091D4039091D5030197F9
:1040B000D1F42FB7F894332780912B0A2FBF99277B
:1040C0004817590781F080919C0390919D03892B9B
:1040D00051F42091CB048FB7F894992720932B0AA1
:1040E0008FBF0E946312DF91CF911F910F910895AE
:1040F000282FCB01222319F0213041F404C0642F72
:104100000E94BC1F0895642F0E9434190895AF9235
:10411000BF92CF92DF92EF920F931F93CF93DF93D3
:10412000A091D009B091D109ED018AA99927982FC2
:1041300088272BA93327822B932B892BD1F18F81B1
:104140009927982F88272E813327822B932B8F5FD7
:104150009F4F81F4FD01319681819927982F8827FF
:1041600029813327822B932B8F7D8983892F992750
:10417000818303C0CD010E948804E091D009F091B1
:10418000D10982A99927182F002783A99927082BDD
:10419000192B0C5E1F4F5801CC24DD240E94FE0316
:1041A000AB01BC01E1E0EE2E9601850185E00E94A5
:1041B000DF0389E10E941502DF91CF911F910F91DA
:1041C000EF90DF90CF90BF90AF9008951F93CF9363
:1041D000DF93EC01162F61E082E00E944404882303
:1041E00019F085E090E043C080919D0C8F5F809333
:1041F0009D0C81508B838FB7F89499272091DA0911
:104200008FBF222349F162E085E00E9444048823A5
:1042100019F085E090E022C0D093D109C093D00975
:104220001093720980910F088D7F80930F08809101
:1042300018088D7F809318088FB7F89499272091DC
:10424000D9098FBF223019F40E94872003C08BE167
:104250000E94150220E009C084E090E0282F8FB76B
:10426000F89499271092D8098FBF822F9927DF9150
:10427000CF911F910895FA01422F2D3118F082E05D
:1042800090E0089583876683872F992787832FB7C8
:10429000F894332780911306909114062FBF8483DE
:1042A000892F992785832FB7F89433278091550359
:1042B000909156032FBF8087892F992781878091FE
:1042C0005803882369F0109258038FE38287642F84
:1042D000CF010E94E6209927282F8823A9F417C030
:1042E000842F99279093220780932107F093C50389
:1042F000E093C40388E10E9415028091580388234B
:1043000049F489E090E008958FEF80935803822F5D
:10431000992708951092860680E090E00895CF9343
:10432000DF93582FFB01823018F081E090E033C01A
:10433000C82FDD27CC0FDD1FC558D14F888199814B
:10434000892B19F085E090E026C079836883435F6C
:1043500040834D5080916303823018F480E090E0F8
:104360001AC0838567817727762F662726813327B2
:10437000622B732B50936303242FAF010E943B21C8
:104380009927282F882329F082E0809363031982DC
:104390001882822F9927DF91CF910895BF92CF92F3
:1043A000DF92EF92FF920F931F93CF93DF93CDB7DE
:1043B000DEB722970FB6F894DEBF0FBECDBF809157
:1043C00071039091720390934F0F80934E0F8091E1
:1043D000D0039091D1039093CC048093CB0480912F
:1043E000C60384FDFDC190E08091C903882309F4D0
:1043F00091E0992309F0F4C18091EA03882359F4EC
:1044000020E08091D40D9091D50D8F5F9F4F09F0E2
:1044100021E0222331F0CE0101960E94E801882399
:1044200039F060E177E280E090E00E94821FD8C11D
:10443000E091C703FF27EE0FFF1FE05FF54FC0803D
:10444000D180D601ED91FC91F0800091D40D1091B6
:10445000D50D8091D4039091D503019761F480919B
:104460007309909174099093690480936804009192
:1044700038041091390407391105E8F01F930F93A0
:1044800080912003909121039F938F938091D40D6D
:104490009091D50D9F938F9386E491E09F938F9396
:1044A0000E94EB43EDB7FEB738960FB6F894FEBF07
:1044B0000FBEEDBF95C1CF010E94FA0420E090919C
:1044C000E903891708F421E0222359F00E94D5045A
:1044D000D6018D919C910E943D05C6010E945C050C
:1044E00079C18091EA03882371F1D601ED91FC91A5
:1044F000B788A091DE06B091DF0684E301900D92AB
:104500008150E1F70091DE061091DF06F80180810D
:104510008951E82EFF246E2DC8010E947B05BC0145
:10452000F3E9BF1629F44E2DC8010E949B138C019C
:104530001093DF060093DE0660E0D6018D919C911A
:104540000E94BC1F4DC10115110571F08091D4036B
:104550009091D503019741F480916804909169048A
:104560009093620380936103F6018381813061F04F
:1045700080916504909166048017910709F42EC11B
:104580000115110509F02AC1809165049091660416
:104590000817190721F010936604009365048091B1
:1045A000D4039091D503019759F4F801EE0FFF1F42
:1045B000E35CF64F80819181909362038093610365
:1045C0008091610390916203892B31F48AE190E03C
:1045D000909362038093610380919C0390919D036B
:1045E000019731F48AE190E0909362038093610334
:1045F0008091880390918903019690938903809319
:10460000880380919403909195030196909395036C
:10461000809394032FB7F894332780912B0A2FBFF0
:1046200099279093C50E8093C40E8FB7F89499275D
:10463000E0912B0A8FBFFF27EE0FFF1FE256F24FCC
:104640008081918101969183808389819A81D601AD
:10465000ED91FC911197808B892F992787872FB730
:10466000F894332780912B0A2FBF99279093B60493
:104670008093B504ED91FC911197818B8091B603E5
:104680009091B7039093B40E8093B30EED91FC918B
:104690001197818BED91FC9185858F738587209192
:1046A000D4033091D5032115310531F48AE190E02E
:1046B00090936203809361030115110549F4213041
:1046C0003105F9F48AE190E09093620380936103ED
:1046D00021303105B1F42FB7F894332780912B0A9C
:1046E0002FBF2091610330916203992782179307AE
:1046F00041F08FB7F894992720932B0A8FBF0E941F
:10470000631280916103909162039F938F931F9333
:104710000F938091D4039091D5039F938F938091B1
:104720004E0F90914F0F9F938F938AE691E09F9346
:104730008F930E94EB430E947A13F601808191814E
:104740000E9488042DB73EB7265F3F4F0FB6F894FE
:104750003EBF0FBE2DBF882329F48091C603886019
:104760008093C6038091C60380FF0BC0D601ED91F4
:10477000FC918585806485878091C6038E7F8093B8
:10478000C603D601ED91FC9180915D0390915E038B
:1047900083AB892F992782AB0683812F9927878343
:1047A00081E78387B3EFFB0E4F2D5527BF0180E0D4
:1047B0000E948F219927882331F48091C60380615C
:1047C0008093C6030DC0823059F4D601ED91FC915F
:1047D00089E2808380E20E94150202C08C01DFCE54
:1047E00022960FB6F894DEBF0FBECDBFDF91CF91FA
:1047F0001F910F91FF90EF90DF90CF90BF900895A1
:10480000FF920F931F93CF93DF93082FEB01F42EAA
:10481000E82FFF27EE0FFF1FE558F14F118210829E
:10482000809163039927019662E070E00E949948A5
:10483000682F8093630310E0462F5527FA01EE0F8F
:10484000FF1FE558F14FA081B181109799F0E62F35
:10485000E695E695E695FF27E254F94F8081992782
:104860009A012770307002C0959587952A95E2F7D6
:1048700080FF0DC0CA01019662E070E00E94994875
:10488000682F1F5F1230C1F61093630319C0609345
:1048900063036230A8F42C912D503327FD0167810A
:1048A0007727762F662786819927682B792BAD018C
:1048B00083850E943B21882319F082E20E94150221
:1048C000002319F0013051F405C06F2DCE010E9474
:1048D000BC1F04C06F2DCE010E943419DF91CF910F
:1048E0001F910F91FF9008959B0180916303823087
:1048F00068F4E82FFF27EE0FFF1FE558F14F6081A6
:1049000071816217730711F40E9400240895CF93F8
:10491000DF93C091C403D091C503609121078FE359
:104920008A87CE010E94E620482F5527442351F064
:104930008FEF809358036091C4037091C5038B85FA
:104940000E947424DF91CF9108956F927F928F928D
:104950009F92AF92BF92CF92DF92EF92FF920F930E
:104960001F93CF93DF938091EA03882309F077C3E5
:104970008091D4039091D503019709F050C28091A2
:104980009C0390919D03019709F43FC1C0E0D0E0E2
:10499000CC24DD24EEEEEE2EEDE0FE2E06EC16E04D
:1049A00044C080E090E0A0E0B0E0F7018083918314
:1049B000A283B383F80180819181875E934051F097
:1049C000CE010E949914019729F4F8018081918108
:1049D000C80ED91EB601882777FD8095982F0E94B2
:1049E0009847F70161937193819391937F01CE0171
:1049F0000E9499149F938F93F801819191918F0157
:104A00009F938F93DF93CF9384EA91E09F938F934B
:104A10000E94EB430E947A1321968DB79EB70896A9
:104A20000FB6F8949EBF0FBE8DBFA0904403B09008
:104A30004503CA15DB050CF4B4CFE601C114D1045B
:104A4000D9F5CC24DD247EEEE72E7DE0F72E06ECB2
:104A500016E024C080E090E0A0E0B0E0F7018083A1
:104A60009183A283B383F80180819181F3E0873E33
:104A70009F0711F0C80FD91FBE01882777FD8095C9
:104A8000982F0E949847F7016193719381939193B6
:104A90007F010894C11CD11C0E5F1F4FCA14DB0498
:104AA000CCF26E01CD2B41F4E091FB03F091FC03BD
:104AB00003E0E73EF00729F4AA24BB24CEEEDDE0B4
:104AC00040C0F0933904E0933804EE0FFF1FE35C1D
:104AD000F64F8081918190937409809373099FC1EF
:104AE000000F111F055F1F4F109374090093730986
:104AF00079C09093D50D8093D40D84819581909346
:104B0000D70D8093D60D87818093D90D95C2E8800B
:104B1000F9800A811B81B601882777FD8095982F3F
:104B20000E9498479B01AC01C801B7010E9435471C
:104B300069937993899399930E94D2130894A11C45
:104B4000B11C8091440390914503A816B906FCF26C
:104B50000E943C039B0177FF0DC066277727621BED
:104B6000730B882777FD8095982F0E9498470E94A5
:104B70007B479B01B901882777FD8095982F0E947C
:104B8000984720E03EEF4FEF56E40E9435476B0117
:104B90007C0186EC91E09F938F930E94EB43C701C9
:104BA000B6010E94D213C0914403D091450300E0A6
:104BB00010E04EEEA42E4DE0B42E0F900F900FC0DB
:104BC000F50121913191419151915F01C701B601E8
:104BD0000E94A24718160CF083CF0F5F1F4F0C17CF
:104BE0001D0774F380917309909174090B97409796
:104BF00030F08AE190E0909374098093730980917A
:104C00009C0390919D03019731F48AE190E0909389
:104C10007409809373091092DD031092DC0340E065
:104C200050E0A3E8B4E0E0E5F6E06091730970912C
:104C3000740920E030E060906D0370906E0314C042
:104C40008D919C9111978617970751F480819181DE
:104C500003E0873E900721F0281739070CF49C01E8
:104C60004F5F5F4F12963296461557054CF33093BF
:104C7000DD032093DC0380E090E0EDEDF9E027EE2A
:104C800033E003C021933193019686159705D4F341
:104C900020E030E0C3E8D4E0A0E5B6E0EDEDF9E0D7
:104CA00060917309709174094091DC035091DD03A8
:104CB00018C0888199818617970771F48D919C910E
:104CC000119713E0873E910739F08A01081B190BF1
:104CD000C8010196918380832F5F3F4F22961296E1
:104CE0003296261537052CF31092DD031092DC0363
:104CF00060E070E0C3E8D4E0ADEDB9E0EBEFF3E0E5
:104D0000E0907309F090740920E030E0409187064C
:104D10005091880617C0888199818E159F0569F486
:104D20008D919C91119713E0873E910731F02817E0
:104D300039071CF49C01408151816F5F7F4F22969F
:104D4000129632966615770534F350938806409391
:104D500087063093DD032093DC03109262041092E7
:104D6000610488249924AA24BB240DE61FE033E8BB
:104D7000C32E34E0D32E20E5E22E26E0F22EC091A1
:104D80007309D09174092FC080E090E0A0E0B0E0FA
:104D9000F80180839183A283B383F601808191819E
:104DA0008C179D07A9F4F70180819181F3E0873E7C
:104DB0009F0771F0A80EB91EB501882777FD809571
:104DC000982F0E949847F8016083718382839383B0
:104DD0000894811C911C0C5F1F4F82E090E0C80E6C
:104DE000D91EE80EF91E8614970474F28091870686
:104DF000909188069093390480933804CB30D10584
:104E000031F481E090E090933904809338042D9739
:104E100031F482E090E09093390480933804AA241E
:104E2000BB249FEFC92ED92E8FEF882E982E662493
:104E30007724DDC0C22FDD2703E0CC0FDD1F0A95EC
:104E4000E1F7C353DB4F2A813B819FEF2F3F3907A7
:104E500009F4CAC08091CD099091CE09281739076D
:104E600009F4C2C0888199810E94CF01AC012881D8
:104E70003981D901AA0FBB1FFD01ED52F04F91837B
:104E800080838C819D81BA01680F791FFD01E451F7
:104E9000F94F71836083A85DB84F8D939C93809187
:104EA000D40D9091D50D2817390779F48FB7F89460
:104EB00099272C813D813093D70D2093D60D2F81DA
:104EC0002093D90D8FBF4B018FC08F81882309F0AC
:104ED0008BC04233510508F087C06C157D0510F476
:104EE0005E016B01EFEFCE16EFEFDE0609F47CC03A
:104EF000FFEF8F16FFEF9F0691F08091D90D882369
:104F000041F08091D60D9091D70D0A96C816D9061A
:104F100030F0C6010F968815990508F065C080919C
:104F2000B90E9091BA0EA091BB0EB091BC0E019635
:104F3000A11DB11D8093B90E9093BA0EA093BB0E24
:104F4000B093BC0E8091D40D9091D50D0E94B70105
:104F50008F3F81F0282F33278BE090E0289FF001CE
:104F6000299FF00D389FF00D1124ED58F84F8581E1
:104F7000877F8583F501808191810E94C503F501BA
:104F8000808191810E94B7018F3F41F0EBE08E9FBD
:104F9000F0011124ED58F84F128611862FB7F894BE
:104FA0003327F501808191819093D50D8093D40DA5
:104FB000848195819093D70D8093D60D87818093BE
:104FC000D90D2FBFC4018C199D09459768F00E9427
:104FD000FE03AB01BC01B1E0EB2E0AE010E020E0E3
:104FE00030E086E00E94DF030894611C711C262DCE
:104FF00030913A04631608F41DCF6091D403709188
:10500000D503409138045091390420E013C0613039
:10501000710579F4E22FFF27A3E0EE0FFF1FAA9599
:10502000E1F7E353FB4F808191818417950709F4E1
:1050300060CD2F5F231759F78091CF03882369F440
:10504000FFEF8F16FFEF9F0641F40FEFC0160FEF33
:10505000D00619F080E20E9415021092CF03DF9172
:10506000CF911F910F91FF90EF90DF90CF90BF9065
:10507000AF909F908F907F906F900895EF920F93D5
:105080001F930E94FE03AB01BC01F1E0EF2E0AE08A
:1050900010E020E030E086E00E94DF031F910F91D6
:1050A000EF9008954F925F926F927F928F929F92AE
:1050B000AF92BF92CF92DF92EF92FF920F931F9326
:1050C000CF93DF93CDB7DEB74DB65EB68091440384
:1050D00090914503880F991F2DB73EB7281B390BB8
:1050E0000FB6F8943EBF0FBE2DBF0DB71EB70F5FB2
:1050F0001F4FEDB7FEB7E81BF90B0FB6F894FEBFD4
:105100000FBEEDBF8DB69EB60894811C911C81ED3B
:1051100091E09F938F930E94EB430E947A138091BA
:105120002003909121032FB7F89433270196AA27E3
:10513000BB278093820690938306A0938406B09346
:1051400085062FBFA0904403B0904503F80180E08E
:1051500090E00F900F9003C01192119201968A1562
:105160009B05D1F760906B0370906C0341E0C42EF7
:10517000D12C3FE3E32E39E0F32E2EC0F7016081FE
:105180007181F7E26F307F0701F16B307105ECF050
:105190006B507040882777FD8095982F0E94984724
:1051A00020E030E040E05FE30E9412480E947B472D
:1051B000DC01CB01880F991F800F911FFC0120811A
:1051C00031812F5F3F4F318320830894C11CD11C54
:1051D00022E030E0E20EF31EC614D70478F2F801A4
:1051E00020E030E09FE0E92E97E2F92E09C08081AF
:1051F00091818E159F0508F47C012F5F3F4F3296F9
:105200002A153B05A1F73FE0E31637E2F30631F03C
:10521000D80120E030E000E010E01EC00E943C0316
:10522000DC01CB0160914403709145030E948548E5
:105230009C0124C08D919C9111978E159F0549F476
:10524000F801EE0FFF1FE80DF91D318320830F5F7A
:105250001F4F2F5F3F4F12962A153B0559F70E94AB
:105260003C03DC01CB01B8010E9485489C01FC0194
:10527000EE0FFF1FE80DF91D80819181880F991FA6
:105280000B969093D1038093D00381E090E09093AC
:10529000D3038093D203F401808191819F938F93F4
:1052A00080915709909158099F938F93FF92EF92A5
:1052B0001F930F933F932F938091D0039091D1032D
:1052C0009F938F9387EE91E09F938F930E94EB4380
:1052D0000E947A13809133088D7F809333080E9457
:1052E0003E280FB6F8945EBE0FBE4DBEDF91CF9143
:1052F0001F910F91FF90EF90DF90CF90BF90AF90F4
:105300009F908F907F906F905F904F900895AF9295
:10531000BF92CF92DF92EF92FF920F931F938091F3
:10532000650390916603A0916703B0916803B695F9
:10533000A795979587958093D1059093D205A093D3
:10534000D305B093D4050E943C03E090D105F090C2
:10535000D2050091D3051091D405A80197010E94B0
:10536000AC48E60EF71E081F191FE092D105F09217
:10537000D2050093D3051093D4051092980D809117
:1053800021088D7F809321088091D4039091D503CB
:10539000019781F48091690390916A03AA2797FD90
:1053A000A095BA2F8093D1059093D205A093D305F1
:1053B000B093D405A090D105B090D205C090D3058C
:1053C000D090D4050E94FE03AB01BC01E1E0EE2EBB
:1053D0009601850186E00E94DF031F910F91FF90E7
:1053E000EF90DF90CF90BF90AF90089580E890E06D
:1053F000A0E0B0E08093650390936603A0936703F9
:10540000B09368038091D4039091D503019781F400
:105410008091690390916A03AA2797FDA095BA2FFE
:105420008093650390936603A0936703B09368032A
:105430000E94872908952F923F924F925F926F9218
:105440007F928F929F92AF92BF92CF92DF92EF9214
:10545000FF920F931F93CF93DF93CDB7DEB72697BD
:105460000FB6F894DEBF0FBECDBFA091DE03B091A2
:10547000DF031C919D01210F311DF9018081881FDF
:105480008827881FFD0183A7F90180818F77FD019F
:1054900081A721503040F9018081FD0180A7E09172
:1054A000DE03F091DF038FB7F89499272091B704BA
:1054B0008FBF2223F9F0878146812FB7F8943327D5
:1054C0006091DC067091DD062FBF9927982F882701
:1054D0005527842B952B8617970761F087812681A6
:1054E0009927982F88273327822B932B8F5F9F4FE5
:1054F00009F041C71D3008F43EC78090DE0390904C
:10550000DF039E828D82F401818520859927582FA3
:1055100044273327422B532B63818FEF8093C60E92
:105520008FB7F894782F20E030E0EBEEF3E0808145
:1055300091818417950731F48281861709F46AC630
:105540002093C60E2F5F3F4F33962430310579F7F5
:105550007FBF9091C60E3FB7F8949F3F21F0809196
:10556000C303891799F42091C303822F9927FC0163
:10557000EE0FFF1FE80FF91FE551FC4F51834083E9
:1055800062832F5F23702093C3030CC0892F992758
:10559000FC01EE0FFF1FE80FF91FE551FC4F51838F
:1055A00040836283832F99278FBF60915F0370913F
:1055B0006003882799270E94031FF40183A588238D
:1055C00009F4CDC682858F3309F0C9C6878146812B
:1055D0002FB7F894332760915503709156032FBF6E
:1055E0009927982F88275527842B952B861797075F
:1055F00061F0878126819927982F88273327822B6E
:10560000932B8F5F9F4F09F0B1C6A12FAD50F401CE
:1056100083859927803721F0813709F0A0C6FBC424
:10562000F401878126819927982F88273327822B99
:10563000932B8F5F9F4F09F0DAC0F401818520859D
:105640009927F82EEE243327E22AF32AC7010E9475
:10565000B7018F3F21F0F401658577270CC00E94C8
:105660003D08182F8F3F51F0B7010E946807F401E1
:1056700065857727812F0E947907B9C081E40E9450
:105680004F08182F8F3FA1F0282F33278BE090E091
:10569000289FF001299FF00D389FF00D1124ED583F
:1056A000F84F808191810E940115B701812F9DC023
:1056B00090E0F40181A58A3608F091E0992309F47D
:1056C00096C0C4010E949808182F682FC4010E9438
:1056D0007C04DC01F4018385803709F088C01B302D
:1056E00009F085C0FD01828123819927982F8827A1
:1056F0003327822B932B8F5F9F4F09F478C0FD01D6
:10570000848125819927582F44273327422B532BF7
:105710004130510521F180913A04082F1127609101
:10572000D40D7091D50DA0E020E030E0EDECF4E078
:105730000EC0808191818617970731F08481958111
:105740004817590708F4A1E02F5F3F4F38962017FC
:10575000310714F4AA2369F3AA2309F448C010E01E
:10576000E8E7F7E08081992780FF04C083FD02C04D
:1057700081FF1F5F3B9627E0E63EF20799F7112372
:10578000B1F10E943C03DC01CB01612F77270E941D
:10579000854800E010E0E8E7F7E09081992349F0C0
:1057A000292F332723FD05C021FD03C081508F3FE2
:1057B00039F00F5F1F4F3B960A30110571F717C084
:1057C000202F0F3FA1F033278BE090E0289FF001BE
:1057D000299FF00D389FF00D1124ED58F84F80816E
:1057E00091810E940115B701802F0E946807809166
:1057F0009A0390919B03019690939B0380939A0345
:10580000C4010E949808382E682FC4010E947C04AD
:105810002C0180918A0390918B03019690938B03C6
:1058200080938A03809196039091970301969093B9
:10583000970380939603F401818520859927782E1C
:1058400066243327622A732A6AE1C4010E947C0419
:10585000FC01668177276B507040882777FD809523
:10586000982F0E94984720E030E040E05FE30E94DC
:1058700012480E947B477093560E6093550E7F939B
:105880006F937F926F9280E392E09F938F930E9439
:10589000EB430E947A136AE1C4010E947C04FC017C
:1058A000818522859927982F88273327822B932B50
:1058B0009093700780936F076AE1C4010E947C0493
:1058C000FC01878120859927582F44273327422BB5
:1058D000532B4F5F5F4F5093700340936F032DB76F
:1058E0003EB72A5F3F4F0FB6F8943EBF0FBE2DBFA5
:1058F00080917103909172034817590724F45093D3
:105900007203409371038091710390917203019728
:1059100089F480E090E00E94CF01209173033091E0
:1059200074032817390730F482E090E090937203F3
:10593000809371038091710390917203209175039C
:1059400030917603820F931F90933C0980933B091B
:1059500027E330E0829F5001839FB00C929FB00CF0
:105960001124B092E403A092E303F301EE0FFF1FB2
:10597000E451F94F60817181A616B7062CF037E229
:105980006F30730709F04AC082E090E09093FA0309
:105990008093F90391C0D801AA0FBB1F9D012D5719
:1059A0003B4F660C771C4DE359E0640E751EF30106
:1059B00080819181F90191838083FD01E550FC4F45
:1059C0000190F081E02DEE0FFF1FE657F94F808127
:1059D0009181A05BB94F8D939C931BC29801220FBC
:1059E000331FF901E550FC4F71826082A9014D57C8
:1059F0005B4FD301AA0FBB1FFD01E35CF64F808113
:105A00009181FA0191838083205B394FA657B94F6A
:105A10008D919C91F90191838083FBC114E6C12E85
:105A2000D12C9B012C9DB0012D9D700D3C9D700DC6
:105A30001124882777FD8095982F0E9498477B0135
:105A40008C01B501882777FD8095982F0E94984793
:105A50009B01AC01C801B7010E9435470E947B47FA
:105A600070931F0760931E07C61AD70AD092FA03D5
:105A7000C092F9036AE1C4010E947C04FC018185A3
:105A800022859927982F88273327822B932B9F9342
:105A90008F93DF92CF9282E592E09F938F930E9443
:105AA000EB430E947A134DB75EB74A5F5F4F0FB664
:105AB000F8945EBF0FBE4DBF8301000F111FFCEEB7
:105AC000EF2EF6E0FF2EE00EF11EF70180819181AE
:105AD0009093FA038093F90380916F079091700778
